:020000040800F2
:1000000000100020B500000829010008290100089F
:100010002901000829010008290100082901000818
:100020002901000829010008290100082901000808
:1000300029010008290100082901000829010008F8
:1000400029010008290100082901000829010008E8
:1000500029010008290100082901000829010008D8
:1000600029010008290100082901000829010008C8
:1000700029010008290100082901000829010008B8
:1000800029010008290100082901000829010008A8
:100090002901000829010008290100082901000898
:1000A0002901000829010008290100082901000888
:1000B0002901000880B584B000AF164BFB60164BD9
:1000C000BB60164A144BD31A7B6007E0BB685A1C0E
:1000D000BA60FA68511CF96012781A707B685A1E6F
:1000E0007A60002BF2D10E4BBB600E4A0C4BD31A38
:1000F0007B6004E0BB685A1CBA6000221A707B68FF
:100100005A1E7A60002BF5D100F076F8BD4604B097
:1001100080BDC0461C030008000000200000002035
:10012000000000200000002080B500AFFEE7C046C0
:1001300080B582B000AF7860C0467B685A1E7A6096
:10014000002BFAD1BD4602B080BDC04680B500AFDD
:10015000234B234A1168234A0A401A60C046204BA9
:100160001A6880239B041340F9D11F4B1E4A126862
:1001700001210A431A601C4B1B4A126806218A435C
:100180001A60194B184A126810210A431A60174B5B
:10019000164A1168164A0A401A60144B134A12682C
:1001A000A02189030A431A60104B104A126880216B
:1001B000C9010A431A600A4B094A1268802149049E
:1001C0000A431A60094B094A126802210A431A605D
:1001D000084B084A126802210A431A60BD4680BDD6
:1001E00000100240FFFFFFFE00200240041002400A
:1001F000FFFFC3FF1C10024080B582B000AFFFF7C5
:10020000A5FF394B384A1268802189020A431A60D7
:100210009023DB059022D2051268802149000A4311
:100220001A60324B02221A60314B324A1A60324B4A
:10023000324A1A60324B324A126868210A431A6005
:10024000304B304A126801210A431A602E4B2E4A65
:10025000126880210A431A602C4B2C4A1268012133
:100260000A431A60284B284A126801210A431A607F
:10027000274B274A1268802149040A431A609023B9
:10028000DB059022D2051268802189010A431A6099
:10029000204B204A126810210A431A6000237B6019
:1002A00008E0154B7A681A606420FFF741FF7B680D
:1002B00001337B607A68184B9A42F2DD154B154A80
:1002C000126810218A431A600A4B3B6008E00A4B0F
:1002D0003A681A606420FFF72BFF3B68013B3B60E4
:1002E0003B68002BF3DCD3E71410024028040040E5
:1002F0002C040040FFFF000034040040FFEF00002A
:100300001804004020040040000400401404004091
:0C0310002000004814000048FEFF000020
:0400000508000000EF
:00000001FF
